{
  "contractName": "Voting",
  "abi": [
    {
      "anonymous": false,
      "inputs": [
        {
          "indexed": true,
          "internalType": "address",
          "name": "previousOwner",
          "type": "address"
        },
        {
          "indexed": true,
          "internalType": "address",
          "name": "newOwner",
          "type": "address"
        }
      ],
      "name": "OwnershipTransferred",
      "type": "event"
    },
    {
      "anonymous": false,
      "inputs": [
        {
          "indexed": false,
          "internalType": "uint256",
          "name": "proposalId",
          "type": "uint256"
        }
      ],
      "name": "ProposalRegistered",
      "type": "event"
    },
    {
      "anonymous": false,
      "inputs": [],
      "name": "ProposalsRegistrationEnded",
      "type": "event"
    },
    {
      "anonymous": false,
      "inputs": [],
      "name": "ProposalsRegistrationStarted",
      "type": "event"
    },
    {
      "anonymous": false,
      "inputs": [
        {
          "indexed": false,
          "internalType": "address",
          "name": "voter",
          "type": "address"
        },
        {
          "indexed": false,
          "internalType": "uint256",
          "name": "proposalId",
          "type": "uint256"
        }
      ],
      "name": "Voted",
      "type": "event"
    },
    {
      "anonymous": false,
      "inputs": [
        {
          "indexed": false,
          "internalType": "address",
          "name": "voterAddress",
          "type": "address"
        }
      ],
      "name": "VoterRegistered",
      "type": "event"
    },
    {
      "anonymous": false,
      "inputs": [],
      "name": "VotesTallied",
      "type": "event"
    },
    {
      "anonymous": false,
      "inputs": [],
      "name": "VotingSessionEnded",
      "type": "event"
    },
    {
      "anonymous": false,
      "inputs": [],
      "name": "VotingSessionStarted",
      "type": "event"
    },
    {
      "anonymous": false,
      "inputs": [
        {
          "indexed": false,
          "internalType": "enum Voting.WorkflowStatus",
          "name": "previousStatus",
          "type": "uint8"
        },
        {
          "indexed": false,
          "internalType": "enum Voting.WorkflowStatus",
          "name": "newStatus",
          "type": "uint8"
        }
      ],
      "name": "WorkflowStatusChange",
      "type": "event"
    },
    {
      "inputs": [],
      "name": "owner",
      "outputs": [
        {
          "internalType": "address",
          "name": "",
          "type": "address"
        }
      ],
      "stateMutability": "view",
      "type": "function",
      "constant": true
    },
    {
      "inputs": [],
      "name": "renounceOwnership",
      "outputs": [],
      "stateMutability": "nonpayable",
      "type": "function"
    },
    {
      "inputs": [
        {
          "internalType": "address",
          "name": "newOwner",
          "type": "address"
        }
      ],
      "name": "transferOwnership",
      "outputs": [],
      "stateMutability": "nonpayable",
      "type": "function"
    },
    {
      "inputs": [],
      "name": "nextWorkflowStatus",
      "outputs": [
        {
          "internalType": "bool",
          "name": "",
          "type": "bool"
        }
      ],
      "stateMutability": "nonpayable",
      "type": "function"
    },
    {
      "inputs": [
        {
          "internalType": "address",
          "name": "_voter",
          "type": "address"
        }
      ],
      "name": "addNewVoter",
      "outputs": [
        {
          "internalType": "bool",
          "name": "",
          "type": "bool"
        }
      ],
      "stateMutability": "nonpayable",
      "type": "function"
    },
    {
      "inputs": [
        {
          "internalType": "string",
          "name": "_description",
          "type": "string"
        }
      ],
      "name": "addProposal",
      "outputs": [
        {
          "internalType": "bool",
          "name": "",
          "type": "bool"
        }
      ],
      "stateMutability": "nonpayable",
      "type": "function"
    },
    {
      "inputs": [
        {
          "internalType": "uint256",
          "name": "_proposalId",
          "type": "uint256"
        }
      ],
      "name": "addVote",
      "outputs": [
        {
          "internalType": "bool",
          "name": "",
          "type": "bool"
        }
      ],
      "stateMutability": "nonpayable",
      "type": "function"
    },
    {
      "inputs": [],
      "name": "results",
      "outputs": [
        {
          "internalType": "bool",
          "name": "",
          "type": "bool"
        }
      ],
      "stateMutability": "nonpayable",
      "type": "function"
    },
    {
      "inputs": [
        {
          "internalType": "uint256",
          "name": "_proposalId",
          "type": "uint256"
        }
      ],
      "name": "getProposalById",
      "outputs": [
        {
          "components": [
            {
              "internalType": "string",
              "name": "description",
              "type": "string"
            },
            {
              "internalType": "uint256",
              "name": "voteCount",
              "type": "uint256"
            }
          ],
          "internalType": "struct Voting.Proposal",
          "name": "",
          "type": "tuple"
        }
      ],
      "stateMutability": "view",
      "type": "function",
      "constant": true
    },
    {
      "inputs": [],
      "name": "getProposals",
      "outputs": [
        {
          "components": [
            {
              "internalType": "string",
              "name": "description",
              "type": "string"
            },
            {
              "internalType": "uint256",
              "name": "voteCount",
              "type": "uint256"
            }
          ],
          "internalType": "struct Voting.Proposal[]",
          "name": "",
          "type": "tuple[]"
        }
      ],
      "stateMutability": "view",
      "type": "function",
      "constant": true
    },
    {
      "inputs": [],
      "name": "getListOfWhitelist",
      "outputs": [
        {
          "internalType": "address[]",
          "name": "",
          "type": "address[]"
        }
      ],
      "stateMutability": "view",
      "type": "function",
      "constant": true
    },
    {
      "inputs": [
        {
          "internalType": "address",
          "name": "_voterAddress",
          "type": "address"
        }
      ],
      "name": "getVoterInfoByAddress",
      "outputs": [
        {
          "components": [
            {
              "internalType": "bool",
              "name": "isRegistered",
              "type": "bool"
            },
            {
              "internalType": "bool",
              "name": "hasVoted",
              "type": "bool"
            },
            {
              "internalType": "uint256",
              "name": "votedProposalId",
              "type": "uint256"
            }
          ],
          "internalType": "struct Voting.Voter",
          "name": "",
          "type": "tuple"
        }
      ],
      "stateMutability": "view",
      "type": "function",
      "constant": true
    },
    {
      "inputs": [],
      "name": "getCurrentStatus",
      "outputs": [
        {
          "internalType": "enum Voting.WorkflowStatus",
          "name": "",
          "type": "uint8"
        }
      ],
      "stateMutability": "view",
      "type": "function",
      "constant": true
    },
    {
      "inputs": [],
      "name": "getWinningProposalId",
      "outputs": [
        {
          "internalType": "uint256",
          "name": "proposalId",
          "type": "uint256"
        }
      ],
      "stateMutability": "view",
      "type": "function",
      "constant": true
    },
    {
      "inputs": [],
      "name": "getNumberOfProposals",
      "outputs": [
        {
          "internalType": "uint256",
          "name": "",
          "type": "uint256"
        }
      ],
      "stateMutability": "view",
      "type": "function",
      "constant": true
    }
  ],
  "bytecode": "0x60806040526000600460006101000a81548160ff02191690836005811115610050577f4e487b7100000000000000000000000000000000000000000000000000000000600052602160045260246000fd5b021790555034801561006157600080fd5b50600061007261011560201b60201c565b9050806000806101000a81548173ffffffffffffffffffffffffffffffffffffffff021916908373ffffffffffffffffffffffffffffffffffffffff1602179055508073ffffffffffffffffffffffffffffffffffffffff16600073ffffffffffffffffffffffffffffffffffffffff167f8be0079c531659141344cd1fd0a4f28419497f9722a3daafe3b4186f6b6457e060405160405180910390a35061011d565b600033905090565b612889806200012d6000396000f3fe608060405234801561001057600080fd5b50600436106100f55760003560e01c8063715018a611610097578063a48bdb7c11610066578063a48bdb7c1461028a578063db6aec9d146102a8578063e81e977b146102c6578063f2fde38b146102e4576100f5565b8063715018a61461022657806375406284146102305780638da5cb5b1461024e578063a3dd26191461026c576100f5565b806333809b6c116100d357806333809b6c1461018a5780633656de21146101a85780634b948db9146101d857806362564c4814610208576100f5565b80630383badc146100fa57806320775f6f1461012a5780632fdae3c51461015a575b600080fd5b610114600480360381019061010f9190611cd4565b610300565b604051610121919061215b565b60405180910390f35b610144600480360381019061013f9190611c66565b610732565b60405161015191906122fc565b60405180910390f35b610174600480360381019061016f9190611c8f565b6107cb565b604051610181919061215b565b60405180910390f35b610192610acb565b60405161019f9190612317565b60405180910390f35b6101c260048036038101906101bd9190611cd4565b610ad8565b6040516101cf91906122da565b60405180910390f35b6101f260048036038101906101ed9190611c66565b610bd6565b6040516101ff919061215b565b60405180910390f35b610210610efb565b60405161021d9190612139565b60405180910390f35b61022e610ff6565b005b610238611130565b604051610245919061215b565b60405180910390f35b6102566115b1565b60405161026391906120d3565b60405180910390f35b6102746115da565b6040516102819190612176565b60405180910390f35b6102926115f1565b60405161029f919061215b565b60405180910390f35b6102b0611801565b6040516102bd9190612117565b60405180910390f35b6102ce61188f565b6040516102db9190612317565b60405180910390f35b6102fe60048036038101906102f99190611c66565b61195f565b005b6000600460009054906101000a900460ff16600380600581111561034d577f4e487b7100000000000000000000000000000000000000000000000000000000600052602160045260246000fd5b826005811115610386577f4e487b7100000000000000000000000000000000000000000000000000000000600052602160045260246000fd5b146103c6576040517f08c379a00000000000000000000000000000000000000000000000000000000081526004016103bd9061223a565b60405180910390fd5b600560003373ffffffffffffffffffffffffffffffffffffffff1673ffffffffffffffffffffffffffffffffffffffff16815260200190815260200160002060000160009054906101000a900460ff16610455576040517f08c379a000000000000000000000000000000000000000000000000000000000815260040161044c9061225a565b60405180910390fd5b600161045f610acb565b6104699190612432565b8411156104ab576040517f08c379a00000000000000000000000000000000000000000000000000000000081526004016104a2906121ba565b60405180910390fd5b600560003373ffffffffffffffffffffffffffffffffffffffff1673ffffffffffffffffffffffffffffffffffffffff16815260200190815260200160002060000160019054906101000a900460ff161561053b576040517f08c379a0000000000000000000000000000000000000000000000000000000008152600401610532906122ba565b60405180910390fd5b60028481548110610575577f4e487b7100000000000000000000000000000000000000000000000000000000600052603260045260246000fd5b9060005260206000209060020201600101600081548092919061059790612547565b91905055506002600154815481106105d8577f4e487b7100000000000000000000000000000000000000000000000000000000600052603260045260246000fd5b90600052602060002090600202016001015460028581548110610624577f4e487b7100000000000000000000000000000000000000000000000000000000600052603260045260246000fd5b906000526020600020906002020160010154111561064457836001819055505b600184600560003373ffffffffffffffffffffffffffffffffffffffff1673ffffffffffffffffffffffffffffffffffffffff1681526020019081526020016000206000016001600560003373ffffffffffffffffffffffffffffffffffffffff1673ffffffffffffffffffffffffffffffffffffffff168152602001908152602001600020600101600084919050558391906101000a81548160ff02191690831515021790555050507f4d99b957a2bc29a30ebd96a7be8e68fe50a3c701db28a91436490b7d53870ca4338560405161071f9291906120ee565b60405180910390a1600192505050919050565b61073a611b10565b600560008373ffffffffffffffffffffffffffffffffffffffff1673ffffffffffffffffffffffffffffffffffffffff1681526020019081526020016000206040518060600160405290816000820160009054906101000a900460ff161515151581526020016000820160019054906101000a900460ff161515151581526020016001820154815250509050919050565b6000600560003373ffffffffffffffffffffffffffffffffffffffff1673ffffffffffffffffffffffffffffffffffffffff16815260200190815260200160002060000160009054906101000a900460ff1661085c576040517f08c379a00000000000000000000000000000000000000000000000000000000081526004016108539061225a565b60405180910390fd5b600460009054906101000a900460ff1660018060058111156108a7577f4e487b7100000000000000000000000000000000000000000000000000000000600052602160045260246000fd5b8260058111156108e0577f4e487b7100000000000000000000000000000000000000000000000000000000600052602160045260246000fd5b14610920576040517f08c379a00000000000000000000000000000000000000000000000000000000081526004016109179061223a565b60405180910390fd5b600385856040516109329291906120ba565b908152602001604051809103902060009054906101000a900460ff161561098e576040517f08c379a00000000000000000000000000000000000000000000000000000000081526004016109859061221a565b60405180910390fd5b6002604051806040016040528087878080601f016020809104026020016040519081016040528093929190818152602001838380828437600081840152601f19601f820116905080830192505050505050508152602001600081525090806001815401808255809150506001900390600052602060002090600202016000909190919091506000820151816000019080519060200190610a2f929190611b35565b50602082015181600101555050600160038686604051610a509291906120ba565b908152602001604051809103902060006101000a81548160ff0219169083151502179055507f92e393e9b54e2f801d3ea4beb0c5e71a21cc34a5d34b77d0fb8a3aa1650dc18f6001610aa0610acb565b610aaa9190612432565b604051610ab79190612317565b60405180910390a160019250505092915050565b6000600280549050905090565b610ae0611bbb565b60028281548110610b1a577f4e487b7100000000000000000000000000000000000000000000000000000000600052603260045260246000fd5b9060005260206000209060020201604051806040016040529081600082018054610b4390612515565b80601f0160208091040260200160405190810160405280929190818152602001828054610b6f90612515565b8015610bbc5780601f10610b9157610100808354040283529160200191610bbc565b820191906000526020600020905b815481529060010190602001808311610b9f57829003601f168201915b505050505081526020016001820154815250509050919050565b6000610be0611b08565b73ffffffffffffffffffffffffffffffffffffffff16610bfe6115b1565b73ffffffffffffffffffffffffffffffffffffffff1614610c54576040517f08c379a0000000000000000000000000000000000000000000000000000000008152600401610c4b9061227a565b60405180910390fd5b600460009054906101000a900460ff166000806005811115610c9f577f4e487b7100000000000000000000000000000000000000000000000000000000600052602160045260246000fd5b826005811115610cd8577f4e487b7100000000000000000000000000000000000000000000000000000000600052602160045260246000fd5b14610d18576040517f08c379a0000000000000000000000000000000000000000000000000000000008152600401610d0f9061223a565b60405180910390fd5b600560008573ffffffffffffffffffffffffffffffffffffffff1673ffffffffffffffffffffffffffffffffffffffff16815260200190815260200160002060000160009054906101000a900460ff1615610da8576040517f08c379a0000000000000000000000000000000000000000000000000000000008152600401610d9f9061229a565b60405180910390fd5b60405180606001604052806001151581526020016000151581526020016000815250600560008673ffffffffffffffffffffffffffffffffffffffff1673ffffffffffffffffffffffffffffffffffffffff16815260200190815260200160002060008201518160000160006101000a81548160ff02191690831515021790555060208201518160000160016101000a81548160ff021916908315150217905550604082015181600101559050506006849080600181540180825580915050600190039060005260206000200160009091909190916101000a81548173ffffffffffffffffffffffffffffffffffffffff021916908373ffffffffffffffffffffffffffffffffffffffff1602179055507fb6be2187d059cc2a55fe29e0e503b566e1e0f8c8780096e185429350acffd3dd84604051610ee891906120d3565b60405180910390a1600192505050919050565b60606002805480602002602001604051908101604052809291908181526020016000905b82821015610fed5783829060005260206000209060020201604051806040016040529081600082018054610f5290612515565b80601f0160208091040260200160405190810160405280929190818152602001828054610f7e90612515565b8015610fcb5780601f10610fa057610100808354040283529160200191610fcb565b820191906000526020600020905b815481529060010190602001808311610fae57829003601f168201915b5050505050815260200160018201548152505081526020019060010190610f1f565b50505050905090565b610ffe611b08565b73ffffffffffffffffffffffffffffffffffffffff1661101c6115b1565b73ffffffffffffffffffffffffffffffffffffffff1614611072576040517f08c379a00000000000000000000000000000000000000000000000000000000081526004016110699061227a565b60405180910390fd5b600073ffffffffffffffffffffffffffffffffffffffff1660008054906101000a900473ffffffffffffffffffffffffffffffffffffffff1673ffffffffffffffffffffffffffffffffffffffff167f8be0079c531659141344cd1fd0a4f28419497f9722a3daafe3b4186f6b6457e060405160405180910390a360008060006101000a81548173ffffffffffffffffffffffffffffffffffffffff021916908373ffffffffffffffffffffffffffffffffffffffff160217905550565b600061113a611b08565b73ffffffffffffffffffffffffffffffffffffffff166111586115b1565b73ffffffffffffffffffffffffffffffffffffffff16146111ae576040517f08c379a00000000000000000000000000000000000000000000000000000000081526004016111a59061227a565b60405180910390fd5b600460058111156111e8577f4e487b7100000000000000000000000000000000000000000000000000000000600052602160045260246000fd5b600460009054906101000a900460ff166005811115611230577f4e487b7100000000000000000000000000000000000000000000000000000000600052602160045260246000fd5b10611270576040517f08c379a0000000000000000000000000000000000000000000000000000000008152600401611267906121fa565b60405180910390fd5b6000600460009054906101000a900460ff1690506001600460009054906101000a900460ff1660058111156112ce577f4e487b7100000000000000000000000000000000000000000000000000000000600052602160045260246000fd5b6112d891906123dc565b6005811115611310577f4e487b7100000000000000000000000000000000000000000000000000000000600052602160045260246000fd5b600460006101000a81548160ff0219169083600581111561135a577f4e487b7100000000000000000000000000000000000000000000000000000000600052602160045260246000fd5b02179055506001600460009054906101000a900460ff1660058111156113a9577f4e487b7100000000000000000000000000000000000000000000000000000000600052602160045260246000fd5b14156113e0577f344c25562921d075a298d34b6dd1fd00d36ff293974539dfd4a8c625d9f0064c60405160405180910390a1611561565b6002600460009054906101000a900460ff16600581111561142a577f4e487b7100000000000000000000000000000000000000000000000000000000600052602160045260246000fd5b1415611461577f240cb87b2e4df4c318e72bd714d45a9cad60249e883ff56b1fffd83a4595a8fa60405160405180910390a1611560565b6003600460009054906101000a900460ff1660058111156114ab577f4e487b7100000000000000000000000000000000000000000000000000000000600052602160045260246000fd5b14156114e2577f1b8e19a458c1bcd88553332c518cc5c4e2d5793e712ee766d4f1c14f672ef1f560405160405180910390a161155f565b60048060009054906101000a900460ff16600581111561152b577f4e487b7100000000000000000000000000000000000000000000000000000000600052602160045260246000fd5b141561155e577fc379d349a6301baf50fb2f98d829f4ae10b1cdb7c66f4e4d8117302df7b8cd4c60405160405180910390a15b5b5b5b7f0a97a4ee45751e2abf3e4fc8946939630b11b371ea8ae39ccdc3056e98f5cc3f81600460009054906101000a900460ff166040516115a1929190612191565b60405180910390a1600191505090565b60008060009054906101000a900473ffffffffffffffffffffffffffffffffffffffff16905090565b6000600460009054906101000a900460ff16905090565b60006115fb611b08565b73ffffffffffffffffffffffffffffffffffffffff166116196115b1565b73ffffffffffffffffffffffffffffffffffffffff161461166f576040517f08c379a00000000000000000000000000000000000000000000000000000000081526004016116669061227a565b60405180910390fd5b600460009054906101000a900460ff1660048060058111156116ba577f4e487b7100000000000000000000000000000000000000000000000000000000600052602160045260246000fd5b8260058111156116f3577f4e487b7100000000000000000000000000000000000000000000000000000000600052602160045260246000fd5b14611733576040517f08c379a000000000000000000000000000000000000000000000000000000000815260040161172a9061223a565b60405180910390fd5b6005600460006101000a81548160ff0219169083600581111561177f577f4e487b7100000000000000000000000000000000000000000000000000000000600052602160045260246000fd5b02179055507f0a97a4ee45751e2abf3e4fc8946939630b11b371ea8ae39ccdc3056e98f5cc3f60048060009054906101000a900460ff166040516117c4929190612191565b60405180910390a17f0e5e95ff8725ab3e7a4b6b59998a4c344c2aa8d1485f5e60cb7f337768e6134760405160405180910390a160019250505090565b6060600680548060200260200160405190810160405280929190818152602001828054801561188557602002820191906000526020600020905b8160009054906101000a900473ffffffffffffffffffffffffffffffffffffffff1673ffffffffffffffffffffffffffffffffffffffff168152602001906001019080831161183b575b5050505050905090565b6000600460009054906101000a900460ff1660058060058111156118dc577f4e487b7100000000000000000000000000000000000000000000000000000000600052602160045260246000fd5b826005811115611915577f4e487b7100000000000000000000000000000000000000000000000000000000600052602160045260246000fd5b14611955576040517f08c379a000000000000000000000000000000000000000000000000000000000815260040161194c9061223a565b60405180910390fd5b6001549250505090565b611967611b08565b73ffffffffffffffffffffffffffffffffffffffff166119856115b1565b73ffffffffffffffffffffffffffffffffffffffff16146119db576040517f08c379a00000000000000000000000000000000000000000000000000000000081526004016119d29061227a565b60405180910390fd5b600073ffffffffffffffffffffffffffffffffffffffff168173ffffffffffffffffffffffffffffffffffffffff161415611a4b576040517f08c379a0000000000000000000000000000000000000000000000000000000008152600401611a42906121da565b60405180910390fd5b8073ffffffffffffffffffffffffffffffffffffffff1660008054906101000a900473ffffffffffffffffffffffffffffffffffffffff1673ffffffffffffffffffffffffffffffffffffffff167f8be0079c531659141344cd1fd0a4f28419497f9722a3daafe3b4186f6b6457e060405160405180910390a3806000806101000a81548173ffffffffffffffffffffffffffffffffffffffff021916908373ffffffffffffffffffffffffffffffffffffffff16021790555050565b600033905090565b6040518060600160405280600015158152602001600015158152602001600081525090565b828054611b4190612515565b90600052602060002090601f016020900481019282611b635760008555611baa565b82601f10611b7c57805160ff1916838001178555611baa565b82800160010185558215611baa579182015b82811115611ba9578251825591602001919060010190611b8e565b5b509050611bb79190611bd5565b5090565b604051806040016040528060608152602001600081525090565b5b80821115611bee576000816000905550600101611bd6565b5090565b600081359050611c0181612825565b92915050565b60008083601f840112611c1957600080fd5b8235905067ffffffffffffffff811115611c3257600080fd5b602083019150836001820283011115611c4a57600080fd5b9250929050565b600081359050611c608161283c565b92915050565b600060208284031215611c7857600080fd5b6000611c8684828501611bf2565b91505092915050565b60008060208385031215611ca257600080fd5b600083013567ffffffffffffffff811115611cbc57600080fd5b611cc885828601611c07565b92509250509250929050565b600060208284031215611ce657600080fd5b6000611cf484828501611c51565b91505092915050565b6000611d098383611d29565b60208301905092915050565b6000611d218383611fe0565b905092915050565b611d3281612466565b82525050565b611d4181612466565b82525050565b6000611d5282612352565b611d5c818561238d565b9350611d6783612332565b8060005b83811015611d98578151611d7f8882611cfd565b9750611d8a83612373565b925050600181019050611d6b565b5085935050505092915050565b6000611db08261235d565b611dba818561239e565b935083602082028501611dcc85612342565b8060005b85811015611e085784840389528151611de98582611d15565b9450611df483612380565b925060208a01995050600181019050611dd0565b50829750879550505050505092915050565b611e2381612478565b82525050565b611e3281612478565b82525050565b611e41816124c1565b82525050565b6000611e5383856123d1565b9350611e608385846124d3565b82840190509392505050565b6000611e7782612368565b611e8181856123af565b9350611e918185602086016124e2565b611e9a8161261d565b840191505092915050565b6000611eb26022836123c0565b9150611ebd8261262e565b604082019050919050565b6000611ed56026836123c0565b9150611ee08261267d565b604082019050919050565b6000611ef86015836123c0565b9150611f03826126cc565b602082019050919050565b6000611f1b601b836123c0565b9150611f26826126f5565b602082019050919050565b6000611f3e6032836123c0565b9150611f498261271e565b604082019050919050565b6000611f616017836123c0565b9150611f6c8261276d565b602082019050919050565b6000611f846020836123c0565b9150611f8f82612796565b602082019050919050565b6000611fa76016836123c0565b9150611fb2826127bf565b602082019050919050565b6000611fca6016836123c0565b9150611fd5826127e8565b602082019050919050565b60006040830160008301518482036000860152611ffd8282611e6c565b9150506020830151612012602086018261209c565b508091505092915050565b6000604083016000830151848203600086015261203a8282611e6c565b915050602083015161204f602086018261209c565b508091505092915050565b6060820160008201516120706000850182611e1a565b5060208201516120836020850182611e1a565b506040820151612096604085018261209c565b50505050565b6120a5816124b7565b82525050565b6120b4816124b7565b82525050565b60006120c7828486611e47565b91508190509392505050565b60006020820190506120e86000830184611d38565b92915050565b60006040820190506121036000830185611d38565b61211060208301846120ab565b9392505050565b600060208201905081810360008301526121318184611d47565b905092915050565b600060208201905081810360008301526121538184611da5565b905092915050565b60006020820190506121706000830184611e29565b92915050565b600060208201905061218b6000830184611e38565b92915050565b60006040820190506121a66000830185611e38565b6121b36020830184611e38565b9392505050565b600060208201905081810360008301526121d381611ea5565b9050919050565b600060208201905081810360008301526121f381611ec8565b9050919050565b6000602082019050818103600083015261221381611eeb565b9050919050565b6000602082019050818103600083015261223381611f0e565b9050919050565b6000602082019050818103600083015261225381611f31565b9050919050565b6000602082019050818103600083015261227381611f54565b9050919050565b6000602082019050818103600083015261229381611f77565b9050919050565b600060208201905081810360008301526122b381611f9a565b9050919050565b600060208201905081810360008301526122d381611fbd565b9050919050565b600060208201905081810360008301526122f4818461201d565b905092915050565b6000606082019050612311600083018461205a565b92915050565b600060208201905061232c60008301846120ab565b92915050565b6000819050602082019050919050565b6000819050602082019050919050565b600081519050919050565b600081519050919050565b600081519050919050565b6000602082019050919050565b6000602082019050919050565b600082825260208201905092915050565b600082825260208201905092915050565b600082825260208201905092915050565b600082825260208201905092915050565b600081905092915050565b60006123e7826124b7565b91506123f2836124b7565b9250827fffffffffffffffffffffffffffffffffffffffffffffffffffffffffffffffff0382111561242757612426612590565b5b828201905092915050565b600061243d826124b7565b9150612448836124b7565b92508282101561245b5761245a612590565b5b828203905092915050565b600061247182612497565b9050919050565b60008115159050919050565b600081905061249282612811565b919050565b600073ffffffffffffffffffffffffffffffffffffffff82169050919050565b6000819050919050565b60006124cc82612484565b9050919050565b82818337600083830152505050565b60005b838110156125005780820151818401526020810190506124e5565b8381111561250f576000848401525b50505050565b6000600282049050600182168061252d57607f821691505b60208210811415612541576125406125ee565b5b50919050565b6000612552826124b7565b91507fffffffffffffffffffffffffffffffffffffffffffffffffffffffffffffffff82141561258557612584612590565b5b600182019050919050565b7f4e487b7100000000000000000000000000000000000000000000000000000000600052601160045260246000fd5b7f4e487b7100000000000000000000000000000000000000000000000000000000600052602160045260246000fd5b7f4e487b7100000000000000000000000000000000000000000000000000000000600052602260045260246000fd5b6000601f19601f8301169050919050565b7f5468652070726f706f73616c4964206973206f7574206f66207468652061727260008201527f6179000000000000000000000000000000000000000000000000000000000000602082015250565b7f4f776e61626c653a206e6577206f776e657220697320746865207a65726f206160008201527f6464726573730000000000000000000000000000000000000000000000000000602082015250565b7f596f752063616e277420676f20666f7277617264730000000000000000000000600082015250565b7f546869732070726f706f73616c20616c72656164792065786973740000000000600082015250565b7f43757272656e7420776f726b666c6f7720737461747573206e6f7420616c696760008201527f6e2077697468206578706563746174696f6e0000000000000000000000000000602082015250565b7f596f7520617265206e6f742077686974656c6973746564000000000000000000600082015250565b7f4f776e61626c653a2063616c6c6572206973206e6f7420746865206f776e6572600082015250565b7f566f74657220616c726561647920726567697374657200000000000000000000600082015250565b7f596f75206861766520616c726561647920766f74656400000000000000000000600082015250565b60068110612822576128216125bf565b5b50565b61282e81612466565b811461283957600080fd5b50565b612845816124b7565b811461285057600080fd5b5056fea264697066735822122047abf1d771a042468952a8db55159f81ddfb89471ab26719d4ce131c941dd4b864736f6c63430008040033",
  "immutableReferences": {},
  "source": "// SPDX-License-Identifier: GPL-3.0\npragma solidity 0.8.4;\n\nimport \"@openzeppelin/contracts/access/Ownable.sol\";\n\n/**\n * @title Voting\n * @author Fabien COUTANT\n * @dev Implements a voting system where users are imported by admin\n *\n */\ncontract Voting is Ownable {\n\n    //Structure\n    struct Voter {\n        bool isRegistered;\n        bool hasVoted;\n        uint votedProposalId;\n    }\n\n    struct Proposal {\n        string description;\n        uint voteCount;\n    }\n\n    //Enum\n    enum WorkflowStatus {\n        RegisteringVoters,\n        ProposalsRegistrationStarted,\n        ProposalsRegistrationEnded,\n        VotingSessionStarted,\n        VotingSessionEnded,\n        VotesTallied\n    }\n\n\n    //Var\n    uint private winningProposalId;\n\n    Proposal[] private proposalList;\n    mapping(string=>bool) private existingProposal;\n\n    WorkflowStatus private status = WorkflowStatus.RegisteringVoters;\n\n    //mapping\n    mapping(address=>Voter) private whitelist;\n    address[] private listOfWhitelisted;\n\n    //Events\n    event VoterRegistered(address voterAddress);\n    event ProposalsRegistrationStarted();\n    event ProposalsRegistrationEnded();\n    event ProposalRegistered(uint proposalId);\n    event VotingSessionStarted();\n    event VotingSessionEnded();\n    event Voted (address voter, uint proposalId);\n    event VotesTallied();\n    event WorkflowStatusChange(WorkflowStatus previousStatus, WorkflowStatus\n    newStatus);\n\n    //modifier\n    modifier checkStatus(WorkflowStatus _currentStatus, WorkflowStatus _expectedStatus){\n        require(_currentStatus==_expectedStatus,\"Current workflow status not align with expectation\");\n        _;\n    }\n\n    modifier onlyWhitelistedUser(){\n        require(whitelist[msg.sender].isRegistered,\"You are not whitelisted\");\n        _;\n    }\n\n    /**\n     * @dev Change the WorkflowStatus to the next one\n     * @return Whether or not the workflow status change succeeded\n     */\n    function nextWorkflowStatus() public onlyOwner returns(bool){\n        require(status<WorkflowStatus.VotingSessionEnded,\"You can't go forwards\");\n        WorkflowStatus _previousStatus = status;\n        status=WorkflowStatus(uint(status) + 1);\n        if(uint(status)==1){\n            emit ProposalsRegistrationStarted();\n        }else if(uint(status)==2){\n            emit ProposalsRegistrationEnded();\n        }else if(uint(status)==3){\n            emit VotingSessionStarted();\n        }else if(uint(status)==4){\n            emit VotingSessionEnded();\n        }\n        emit WorkflowStatusChange(_previousStatus, status);\n        return true;\n    }\n\n    /**\n     * @dev Add new voter to the whitelisted\n     * @param _voter address of the new voter\n     * @return Whether or not adding new Voter succeeded\n     */\n    function addNewVoter(address _voter) external onlyOwner checkStatus(status,WorkflowStatus.RegisteringVoters) returns(bool){\n        require(!whitelist[_voter].isRegistered,\"Voter already register\");\n        whitelist[_voter]=Voter(true, false,0);\n        listOfWhitelisted.push(_voter);\n        emit VoterRegistered(_voter);\n        return true;\n    }\n\n    /**\n     * @dev Allow whitelisted user to add proposal if status is at ProposalsRegistrationStarted\n     * @param _description string of the user proposal\n     * @return Whether or not adding new Proposal succeeded\n     */\n    function addProposal(string calldata _description) external onlyWhitelistedUser checkStatus(status,WorkflowStatus.ProposalsRegistrationStarted) returns(bool){\n        require(!existingProposal[_description],\"This proposal already exist\");\n        proposalList.push(Proposal(_description,0));\n        existingProposal[_description]=true;\n        emit ProposalRegistered(getNumberOfProposals()-1);\n        return true;\n    }\n\n\n    /**\n     * @dev Allow whitelisted user to add vote one time for a proposal\n     * @param _proposalId uint of the proposal id number\n     * @return Whether or not adding new Proposal succeeded\n     */\n    function addVote(uint _proposalId) external checkStatus(status,WorkflowStatus.VotingSessionStarted) onlyWhitelistedUser returns(bool){\n        require(_proposalId<=getNumberOfProposals()-1,\"The proposalId is out of the array\");\n        require(!whitelist[msg.sender].hasVoted,\"You have already voted\");\n        proposalList[_proposalId].voteCount++;\n        if(proposalList[_proposalId].voteCount > proposalList[winningProposalId].voteCount){\n            winningProposalId = _proposalId;\n        }\n        (whitelist[msg.sender].hasVoted,whitelist[msg.sender].votedProposalId)=(true,_proposalId);\n        emit Voted(msg.sender, _proposalId);\n        return true;\n    }\n\n    /**\n     * @dev Allow admin to select the winning proposal\n     * @return Whether or not calling the result succeeded\n     */\n    function results() external onlyOwner checkStatus(status,WorkflowStatus.VotingSessionEnded) returns(bool){\n        status = WorkflowStatus.VotesTallied;\n        emit WorkflowStatusChange(\n            WorkflowStatus.VotingSessionEnded,\n            status\n        );\n        emit VotesTallied();\n        return true;\n    }\n\n\n    /**\n     * @dev Getter of proposal information\n     * @param _proposalId uint of the proposal id number\n     * @return Proposal\n     */\n    function getProposalById(uint _proposalId) external view returns(Proposal memory){\n        return proposalList[_proposalId];\n    }\n\n    /**\n     * @dev Get the proposals list\n     * @return Proposal[]\n     */\n    function getProposals() external view returns(Proposal[] memory){\n        return proposalList;\n    }\n\n    /**\n     * @dev Get the list of whitelisted address\n     * @return listOfWhitelisted[]\n     */\n    function getListOfWhitelist() external view returns(address[] memory){\n        return listOfWhitelisted;\n    }\n    /**\n     * @dev Getter of whitelisted user information\n     * @param _voterAddress address of the whitelisted user\n     * @return Voter memory\n     */\n    function getVoterInfoByAddress(address _voterAddress) external view returns(Voter memory){\n        return whitelist[_voterAddress];\n    }\n\n    /**\n     * @dev Getter of current workflow status\n     * @return WorkflowStatus number\n     */\n    function getCurrentStatus() external view returns(WorkflowStatus){\n        return status;\n    }\n\n\n    /**\n     * @dev Getter of winning proposalId\n     * @return proposalId uint\n     */\n    function getWinningProposalId() external view checkStatus(status,WorkflowStatus.VotesTallied) returns(uint proposalId){\n        return winningProposalId;\n    }\n\n\n    /**\n     * @dev Getter of number of proposal\n     * @return uint number of total proposal registered\n     */\n    function getNumberOfProposals() public view returns(uint){\n        return proposalList.length;\n    }\n}\n",
  "sourcePath": "/Users/Xutyr/Documents/Lab/Alyra/00_Dfi/02 - Voting Dapp/contracts/Voting.sol",
  "compiler": {
    "name": "solc",
    "version": "0.8.4+commit.c7e474f2.Emscripten.clang"
  },
  "schemaVersion": "3.4.1",
  "updatedAt": "2021-06-24T13:20:39.225Z",
  "networkType": "ethereum",
  "devdoc": {
    "author": "Fabien COUTANT",
    "details": "Implements a voting system where users are imported by admin",
    "kind": "dev",
    "methods": {
      "addNewVoter(address)": {
        "details": "Add new voter to the whitelisted",
        "params": {
          "_voter": "address of the new voter"
        },
        "returns": {
          "_0": "Whether or not adding new Voter succeeded"
        }
      },
      "addProposal(string)": {
        "details": "Allow whitelisted user to add proposal if status is at ProposalsRegistrationStarted",
        "params": {
          "_description": "string of the user proposal"
        },
        "returns": {
          "_0": "Whether or not adding new Proposal succeeded"
        }
      },
      "addVote(uint256)": {
        "details": "Allow whitelisted user to add vote one time for a proposal",
        "params": {
          "_proposalId": "uint of the proposal id number"
        },
        "returns": {
          "_0": "Whether or not adding new Proposal succeeded"
        }
      },
      "getCurrentStatus()": {
        "details": "Getter of current workflow status",
        "returns": {
          "_0": "WorkflowStatus number"
        }
      },
      "getListOfWhitelist()": {
        "details": "Get the list of whitelisted address",
        "returns": {
          "_0": "listOfWhitelisted[]"
        }
      },
      "getNumberOfProposals()": {
        "details": "Getter of number of proposal",
        "returns": {
          "_0": "uint number of total proposal registered"
        }
      },
      "getProposalById(uint256)": {
        "details": "Getter of proposal information",
        "params": {
          "_proposalId": "uint of the proposal id number"
        },
        "returns": {
          "_0": "Proposal"
        }
      },
      "getProposals()": {
        "details": "Get the proposals list",
        "returns": {
          "_0": "Proposal[]"
        }
      },
      "getVoterInfoByAddress(address)": {
        "details": "Getter of whitelisted user information",
        "params": {
          "_voterAddress": "address of the whitelisted user"
        },
        "returns": {
          "_0": "Voter memory"
        }
      },
      "getWinningProposalId()": {
        "details": "Getter of winning proposalId",
        "returns": {
          "proposalId": "uint"
        }
      },
      "nextWorkflowStatus()": {
        "details": "Change the WorkflowStatus to the next one",
        "returns": {
          "_0": "Whether or not the workflow status change succeeded"
        }
      },
      "owner()": {
        "details": "Returns the address of the current owner."
      },
      "renounceOwnership()": {
        "details": "Leaves the contract without owner. It will not be possible to call `onlyOwner` functions anymore. Can only be called by the current owner. NOTE: Renouncing ownership will leave the contract without an owner, thereby removing any functionality that is only available to the owner."
      },
      "results()": {
        "details": "Allow admin to select the winning proposal",
        "returns": {
          "_0": "Whether or not calling the result succeeded"
        }
      },
      "transferOwnership(address)": {
        "details": "Transfers ownership of the contract to a new account (`newOwner`). Can only be called by the current owner."
      }
    },
    "title": "Voting",
    "version": 1
  },
  "userdoc": {
    "kind": "user",
    "methods": {},
    "version": 1
  }
}