{
  "contractName": "Voting",
  "abi": [
    {
      "anonymous": false,
      "inputs": [
        {
          "indexed": true,
          "internalType": "address",
          "name": "previousOwner",
          "type": "address"
        },
        {
          "indexed": true,
          "internalType": "address",
          "name": "newOwner",
          "type": "address"
        }
      ],
      "name": "OwnershipTransferred",
      "type": "event"
    },
    {
      "anonymous": false,
      "inputs": [
        {
          "indexed": false,
          "internalType": "uint256",
          "name": "proposalId",
          "type": "uint256"
        }
      ],
      "name": "ProposalRegistered",
      "type": "event"
    },
    {
      "anonymous": false,
      "inputs": [],
      "name": "ProposalsRegistrationEnded",
      "type": "event"
    },
    {
      "anonymous": false,
      "inputs": [],
      "name": "ProposalsRegistrationStarted",
      "type": "event"
    },
    {
      "anonymous": false,
      "inputs": [
        {
          "indexed": false,
          "internalType": "address",
          "name": "voter",
          "type": "address"
        },
        {
          "indexed": false,
          "internalType": "uint256",
          "name": "proposalId",
          "type": "uint256"
        }
      ],
      "name": "Voted",
      "type": "event"
    },
    {
      "anonymous": false,
      "inputs": [
        {
          "indexed": false,
          "internalType": "address",
          "name": "voterAddress",
          "type": "address"
        }
      ],
      "name": "VoterRegistered",
      "type": "event"
    },
    {
      "anonymous": false,
      "inputs": [],
      "name": "VotesTallied",
      "type": "event"
    },
    {
      "anonymous": false,
      "inputs": [],
      "name": "VotingSessionEnded",
      "type": "event"
    },
    {
      "anonymous": false,
      "inputs": [],
      "name": "VotingSessionStarted",
      "type": "event"
    },
    {
      "anonymous": false,
      "inputs": [
        {
          "indexed": false,
          "internalType": "enum Voting.WorkflowStatus",
          "name": "previousStatus",
          "type": "uint8"
        },
        {
          "indexed": false,
          "internalType": "enum Voting.WorkflowStatus",
          "name": "newStatus",
          "type": "uint8"
        }
      ],
      "name": "WorkflowStatusChange",
      "type": "event"
    },
    {
      "inputs": [],
      "name": "owner",
      "outputs": [
        {
          "internalType": "address",
          "name": "",
          "type": "address"
        }
      ],
      "stateMutability": "view",
      "type": "function",
      "constant": true
    },
    {
      "inputs": [],
      "name": "renounceOwnership",
      "outputs": [],
      "stateMutability": "nonpayable",
      "type": "function"
    },
    {
      "inputs": [
        {
          "internalType": "address",
          "name": "newOwner",
          "type": "address"
        }
      ],
      "name": "transferOwnership",
      "outputs": [],
      "stateMutability": "nonpayable",
      "type": "function"
    },
    {
      "inputs": [],
      "name": "nextWorkflowStatus",
      "outputs": [
        {
          "internalType": "bool",
          "name": "",
          "type": "bool"
        }
      ],
      "stateMutability": "nonpayable",
      "type": "function"
    },
    {
      "inputs": [
        {
          "internalType": "address",
          "name": "_voter",
          "type": "address"
        }
      ],
      "name": "addNewVoter",
      "outputs": [
        {
          "internalType": "bool",
          "name": "",
          "type": "bool"
        }
      ],
      "stateMutability": "nonpayable",
      "type": "function"
    },
    {
      "inputs": [
        {
          "internalType": "string",
          "name": "_description",
          "type": "string"
        }
      ],
      "name": "addProposal",
      "outputs": [
        {
          "internalType": "bool",
          "name": "",
          "type": "bool"
        }
      ],
      "stateMutability": "nonpayable",
      "type": "function"
    },
    {
      "inputs": [
        {
          "internalType": "uint256",
          "name": "_proposalId",
          "type": "uint256"
        }
      ],
      "name": "addVote",
      "outputs": [
        {
          "internalType": "bool",
          "name": "",
          "type": "bool"
        }
      ],
      "stateMutability": "nonpayable",
      "type": "function"
    },
    {
      "inputs": [],
      "name": "results",
      "outputs": [
        {
          "internalType": "bool",
          "name": "",
          "type": "bool"
        }
      ],
      "stateMutability": "nonpayable",
      "type": "function"
    },
    {
      "inputs": [
        {
          "internalType": "uint256",
          "name": "_proposalId",
          "type": "uint256"
        }
      ],
      "name": "getProposalById",
      "outputs": [
        {
          "components": [
            {
              "internalType": "string",
              "name": "description",
              "type": "string"
            },
            {
              "internalType": "uint256",
              "name": "voteCount",
              "type": "uint256"
            }
          ],
          "internalType": "struct Voting.Proposal",
          "name": "",
          "type": "tuple"
        }
      ],
      "stateMutability": "view",
      "type": "function",
      "constant": true
    },
    {
      "inputs": [],
      "name": "getProposals",
      "outputs": [
        {
          "components": [
            {
              "internalType": "string",
              "name": "description",
              "type": "string"
            },
            {
              "internalType": "uint256",
              "name": "voteCount",
              "type": "uint256"
            }
          ],
          "internalType": "struct Voting.Proposal[]",
          "name": "",
          "type": "tuple[]"
        }
      ],
      "stateMutability": "view",
      "type": "function",
      "constant": true
    },
    {
      "inputs": [],
      "name": "getListOfWhitelist",
      "outputs": [
        {
          "internalType": "address[]",
          "name": "",
          "type": "address[]"
        }
      ],
      "stateMutability": "view",
      "type": "function",
      "constant": true
    },
    {
      "inputs": [
        {
          "internalType": "address",
          "name": "_voterAddress",
          "type": "address"
        }
      ],
      "name": "getVoterInfoByAddress",
      "outputs": [
        {
          "components": [
            {
              "internalType": "bool",
              "name": "isRegistered",
              "type": "bool"
            },
            {
              "internalType": "bool",
              "name": "hasVoted",
              "type": "bool"
            },
            {
              "internalType": "uint256",
              "name": "votedProposalId",
              "type": "uint256"
            }
          ],
          "internalType": "struct Voting.Voter",
          "name": "",
          "type": "tuple"
        }
      ],
      "stateMutability": "view",
      "type": "function",
      "constant": true
    },
    {
      "inputs": [],
      "name": "getCurrentStatus",
      "outputs": [
        {
          "internalType": "enum Voting.WorkflowStatus",
          "name": "",
          "type": "uint8"
        }
      ],
      "stateMutability": "view",
      "type": "function",
      "constant": true
    },
    {
      "inputs": [],
      "name": "getWinningProposalId",
      "outputs": [
        {
          "internalType": "uint256",
          "name": "proposalId",
          "type": "uint256"
        }
      ],
      "stateMutability": "view",
      "type": "function",
      "constant": true
    }
  ],
  "bytecode": "0x60806040526000600460006101000a81548160ff02191690836005811115610050577f4e487b7100000000000000000000000000000000000000000000000000000000600052602160045260246000fd5b021790555034801561006157600080fd5b50600061007261011560201b60201c565b9050806000806101000a81548173ffffffffffffffffffffffffffffffffffffffff021916908373ffffffffffffffffffffffffffffffffffffffff1602179055508073ffffffffffffffffffffffffffffffffffffffff16600073ffffffffffffffffffffffffffffffffffffffff167f8be0079c531659141344cd1fd0a4f28419497f9722a3daafe3b4186f6b6457e060405160405180910390a35061011d565b600033905090565b612860806200012d6000396000f3fe608060405234801561001057600080fd5b50600436106100ea5760003560e01c8063754062841161008c578063a48bdb7c11610066578063a48bdb7c14610261578063db6aec9d1461027f578063e81e977b1461029d578063f2fde38b146102bb576100ea565b806375406284146102075780638da5cb5b14610225578063a3dd261914610243576100ea565b80633656de21116100c85780633656de211461017f5780634b948db9146101af57806362564c48146101df578063715018a6146101fd576100ea565b80630383badc146100ef57806320775f6f1461011f5780632fdae3c51461014f575b600080fd5b61010960048036038101906101049190611cab565b6102d7565b6040516101169190612132565b60405180910390f35b61013960048036038101906101349190611c3d565b610709565b60405161014691906122d3565b60405180910390f35b61016960048036038101906101649190611c66565b6107a2565b6040516101769190612132565b60405180910390f35b61019960048036038101906101949190611cab565b610aa2565b6040516101a691906122b1565b60405180910390f35b6101c960048036038101906101c49190611c3d565b610ba0565b6040516101d69190612132565b60405180910390f35b6101e7610ec5565b6040516101f49190612110565b60405180910390f35b610205610fc0565b005b61020f6110fa565b60405161021c9190612132565b60405180910390f35b61022d61157b565b60405161023a91906120aa565b60405180910390f35b61024b6115a4565b604051610258919061214d565b60405180910390f35b6102696115bb565b6040516102769190612132565b60405180910390f35b6102876117cb565b60405161029491906120ee565b60405180910390f35b6102a5611859565b6040516102b291906122ee565b60405180910390f35b6102d560048036038101906102d09190611c3d565b611929565b005b6000600460009054906101000a900460ff166003806005811115610324577f4e487b7100000000000000000000000000000000000000000000000000000000600052602160045260246000fd5b82600581111561035d577f4e487b7100000000000000000000000000000000000000000000000000000000600052602160045260246000fd5b1461039d576040517f08c379a000000000000000000000000000000000000000000000000000000000815260040161039490612211565b60405180910390fd5b600560003373ffffffffffffffffffffffffffffffffffffffff1673ffffffffffffffffffffffffffffffffffffffff16815260200190815260200160002060000160009054906101000a900460ff1661042c576040517f08c379a000000000000000000000000000000000000000000000000000000000815260040161042390612231565b60405180910390fd5b6001610436611ad2565b6104409190612409565b841115610482576040517f08c379a000000000000000000000000000000000000000000000000000000000815260040161047990612191565b60405180910390fd5b600560003373ffffffffffffffffffffffffffffffffffffffff1673ffffffffffffffffffffffffffffffffffffffff16815260200190815260200160002060000160019054906101000a900460ff1615610512576040517f08c379a000000000000000000000000000000000000000000000000000000000815260040161050990612291565b60405180910390fd5b6002848154811061054c577f4e487b7100000000000000000000000000000000000000000000000000000000600052603260045260246000fd5b9060005260206000209060020201600101600081548092919061056e9061251e565b91905055506002600154815481106105af577f4e487b7100000000000000000000000000000000000000000000000000000000600052603260045260246000fd5b906000526020600020906002020160010154600285815481106105fb577f4e487b7100000000000000000000000000000000000000000000000000000000600052603260045260246000fd5b906000526020600020906002020160010154111561061b57836001819055505b600184600560003373ffffffffffffffffffffffffffffffffffffffff1673ffffffffffffffffffffffffffffffffffffffff1681526020019081526020016000206000016001600560003373ffffffffffffffffffffffffffffffffffffffff1673ffffffffffffffffffffffffffffffffffffffff168152602001908152602001600020600101600084919050558391906101000a81548160ff02191690831515021790555050507f4d99b957a2bc29a30ebd96a7be8e68fe50a3c701db28a91436490b7d53870ca433856040516106f69291906120c5565b60405180910390a1600192505050919050565b610711611ae7565b600560008373ffffffffffffffffffffffffffffffffffffffff1673ffffffffffffffffffffffffffffffffffffffff1681526020019081526020016000206040518060600160405290816000820160009054906101000a900460ff161515151581526020016000820160019054906101000a900460ff161515151581526020016001820154815250509050919050565b6000600560003373ffffffffffffffffffffffffffffffffffffffff1673ffffffffffffffffffffffffffffffffffffffff16815260200190815260200160002060000160009054906101000a900460ff16610833576040517f08c379a000000000000000000000000000000000000000000000000000000000815260040161082a90612231565b60405180910390fd5b600460009054906101000a900460ff16600180600581111561087e577f4e487b7100000000000000000000000000000000000000000000000000000000600052602160045260246000fd5b8260058111156108b7577f4e487b7100000000000000000000000000000000000000000000000000000000600052602160045260246000fd5b146108f7576040517f08c379a00000000000000000000000000000000000000000000000000000000081526004016108ee90612211565b60405180910390fd5b60038585604051610909929190612091565b908152602001604051809103902060009054906101000a900460ff1615610965576040517f08c379a000000000000000000000000000000000000000000000000000000000815260040161095c906121f1565b60405180910390fd5b6002604051806040016040528087878080601f016020809104026020016040519081016040528093929190818152602001838380828437600081840152601f19601f820116905080830192505050505050508152602001600081525090806001815401808255809150506001900390600052602060002090600202016000909190919091506000820151816000019080519060200190610a06929190611b0c565b50602082015181600101555050600160038686604051610a27929190612091565b908152602001604051809103902060006101000a81548160ff0219169083151502179055507f92e393e9b54e2f801d3ea4beb0c5e71a21cc34a5d34b77d0fb8a3aa1650dc18f6001610a77611ad2565b610a819190612409565b604051610a8e91906122ee565b60405180910390a160019250505092915050565b610aaa611b92565b60028281548110610ae4577f4e487b7100000000000000000000000000000000000000000000000000000000600052603260045260246000fd5b9060005260206000209060020201604051806040016040529081600082018054610b0d906124ec565b80601f0160208091040260200160405190810160405280929190818152602001828054610b39906124ec565b8015610b865780601f10610b5b57610100808354040283529160200191610b86565b820191906000526020600020905b815481529060010190602001808311610b6957829003601f168201915b505050505081526020016001820154815250509050919050565b6000610baa611adf565b73ffffffffffffffffffffffffffffffffffffffff16610bc861157b565b73ffffffffffffffffffffffffffffffffffffffff1614610c1e576040517f08c379a0000000000000000000000000000000000000000000000000000000008152600401610c1590612251565b60405180910390fd5b600460009054906101000a900460ff166000806005811115610c69577f4e487b7100000000000000000000000000000000000000000000000000000000600052602160045260246000fd5b826005811115610ca2577f4e487b7100000000000000000000000000000000000000000000000000000000600052602160045260246000fd5b14610ce2576040517f08c379a0000000000000000000000000000000000000000000000000000000008152600401610cd990612211565b60405180910390fd5b600560008573ffffffffffffffffffffffffffffffffffffffff1673ffffffffffffffffffffffffffffffffffffffff16815260200190815260200160002060000160009054906101000a900460ff1615610d72576040517f08c379a0000000000000000000000000000000000000000000000000000000008152600401610d6990612271565b60405180910390fd5b60405180606001604052806001151581526020016000151581526020016000815250600560008673ffffffffffffffffffffffffffffffffffffffff1673ffffffffffffffffffffffffffffffffffffffff16815260200190815260200160002060008201518160000160006101000a81548160ff02191690831515021790555060208201518160000160016101000a81548160ff021916908315150217905550604082015181600101559050506006849080600181540180825580915050600190039060005260206000200160009091909190916101000a81548173ffffffffffffffffffffffffffffffffffffffff021916908373ffffffffffffffffffffffffffffffffffffffff1602179055507fb6be2187d059cc2a55fe29e0e503b566e1e0f8c8780096e185429350acffd3dd84604051610eb291906120aa565b60405180910390a1600192505050919050565b60606002805480602002602001604051908101604052809291908181526020016000905b82821015610fb75783829060005260206000209060020201604051806040016040529081600082018054610f1c906124ec565b80601f0160208091040260200160405190810160405280929190818152602001828054610f48906124ec565b8015610f955780601f10610f6a57610100808354040283529160200191610f95565b820191906000526020600020905b815481529060010190602001808311610f7857829003601f168201915b5050505050815260200160018201548152505081526020019060010190610ee9565b50505050905090565b610fc8611adf565b73ffffffffffffffffffffffffffffffffffffffff16610fe661157b565b73ffffffffffffffffffffffffffffffffffffffff161461103c576040517f08c379a000000000000000000000000000000000000000000000000000000000815260040161103390612251565b60405180910390fd5b600073ffffffffffffffffffffffffffffffffffffffff1660008054906101000a900473ffffffffffffffffffffffffffffffffffffffff1673ffffffffffffffffffffffffffffffffffffffff167f8be0079c531659141344cd1fd0a4f28419497f9722a3daafe3b4186f6b6457e060405160405180910390a360008060006101000a81548173ffffffffffffffffffffffffffffffffffffffff021916908373ffffffffffffffffffffffffffffffffffffffff160217905550565b6000611104611adf565b73ffffffffffffffffffffffffffffffffffffffff1661112261157b565b73ffffffffffffffffffffffffffffffffffffffff1614611178576040517f08c379a000000000000000000000000000000000000000000000000000000000815260040161116f90612251565b60405180910390fd5b600460058111156111b2577f4e487b7100000000000000000000000000000000000000000000000000000000600052602160045260246000fd5b600460009054906101000a900460ff1660058111156111fa577f4e487b7100000000000000000000000000000000000000000000000000000000600052602160045260246000fd5b1061123a576040517f08c379a0000000000000000000000000000000000000000000000000000000008152600401611231906121d1565b60405180910390fd5b6000600460009054906101000a900460ff1690506001600460009054906101000a900460ff166005811115611298577f4e487b7100000000000000000000000000000000000000000000000000000000600052602160045260246000fd5b6112a291906123b3565b60058111156112da577f4e487b7100000000000000000000000000000000000000000000000000000000600052602160045260246000fd5b600460006101000a81548160ff02191690836005811115611324577f4e487b7100000000000000000000000000000000000000000000000000000000600052602160045260246000fd5b02179055506001600460009054906101000a900460ff166005811115611373577f4e487b7100000000000000000000000000000000000000000000000000000000600052602160045260246000fd5b14156113aa577f344c25562921d075a298d34b6dd1fd00d36ff293974539dfd4a8c625d9f0064c60405160405180910390a161152b565b6002600460009054906101000a900460ff1660058111156113f4577f4e487b7100000000000000000000000000000000000000000000000000000000600052602160045260246000fd5b141561142b577f240cb87b2e4df4c318e72bd714d45a9cad60249e883ff56b1fffd83a4595a8fa60405160405180910390a161152a565b6003600460009054906101000a900460ff166005811115611475577f4e487b7100000000000000000000000000000000000000000000000000000000600052602160045260246000fd5b14156114ac577f1b8e19a458c1bcd88553332c518cc5c4e2d5793e712ee766d4f1c14f672ef1f560405160405180910390a1611529565b60048060009054906101000a900460ff1660058111156114f5577f4e487b7100000000000000000000000000000000000000000000000000000000600052602160045260246000fd5b1415611528577fc379d349a6301baf50fb2f98d829f4ae10b1cdb7c66f4e4d8117302df7b8cd4c60405160405180910390a15b5b5b5b7f0a97a4ee45751e2abf3e4fc8946939630b11b371ea8ae39ccdc3056e98f5cc3f81600460009054906101000a900460ff1660405161156b929190612168565b60405180910390a1600191505090565b60008060009054906101000a900473ffffffffffffffffffffffffffffffffffffffff16905090565b6000600460009054906101000a900460ff16905090565b60006115c5611adf565b73ffffffffffffffffffffffffffffffffffffffff166115e361157b565b73ffffffffffffffffffffffffffffffffffffffff1614611639576040517f08c379a000000000000000000000000000000000000000000000000000000000815260040161163090612251565b60405180910390fd5b600460009054906101000a900460ff166004806005811115611684577f4e487b7100000000000000000000000000000000000000000000000000000000600052602160045260246000fd5b8260058111156116bd577f4e487b7100000000000000000000000000000000000000000000000000000000600052602160045260246000fd5b146116fd576040517f08c379a00000000000000000000000000000000000000000000000000000000081526004016116f490612211565b60405180910390fd5b6005600460006101000a81548160ff02191690836005811115611749577f4e487b7100000000000000000000000000000000000000000000000000000000600052602160045260246000fd5b02179055507f0a97a4ee45751e2abf3e4fc8946939630b11b371ea8ae39ccdc3056e98f5cc3f60048060009054906101000a900460ff1660405161178e929190612168565b60405180910390a17f0e5e95ff8725ab3e7a4b6b59998a4c344c2aa8d1485f5e60cb7f337768e6134760405160405180910390a160019250505090565b6060600680548060200260200160405190810160405280929190818152602001828054801561184f57602002820191906000526020600020905b8160009054906101000a900473ffffffffffffffffffffffffffffffffffffffff1673ffffffffffffffffffffffffffffffffffffffff1681526020019060010190808311611805575b5050505050905090565b6000600460009054906101000a900460ff1660058060058111156118a6577f4e487b7100000000000000000000000000000000000000000000000000000000600052602160045260246000fd5b8260058111156118df577f4e487b7100000000000000000000000000000000000000000000000000000000600052602160045260246000fd5b1461191f576040517f08c379a000000000000000000000000000000000000000000000000000000000815260040161191690612211565b60405180910390fd5b6001549250505090565b611931611adf565b73ffffffffffffffffffffffffffffffffffffffff1661194f61157b565b73ffffffffffffffffffffffffffffffffffffffff16146119a5576040517f08c379a000000000000000000000000000000000000000000000000000000000815260040161199c90612251565b60405180910390fd5b600073ffffffffffffffffffffffffffffffffffffffff168173ffffffffffffffffffffffffffffffffffffffff161415611a15576040517f08c379a0000000000000000000000000000000000000000000000000000000008152600401611a0c906121b1565b60405180910390fd5b8073ffffffffffffffffffffffffffffffffffffffff1660008054906101000a900473ffffffffffffffffffffffffffffffffffffffff1673ffffffffffffffffffffffffffffffffffffffff167f8be0079c531659141344cd1fd0a4f28419497f9722a3daafe3b4186f6b6457e060405160405180910390a3806000806101000a81548173ffffffffffffffffffffffffffffffffffffffff021916908373ffffffffffffffffffffffffffffffffffffffff16021790555050565b6000600280549050905090565b600033905090565b6040518060600160405280600015158152602001600015158152602001600081525090565b828054611b18906124ec565b90600052602060002090601f016020900481019282611b3a5760008555611b81565b82601f10611b5357805160ff1916838001178555611b81565b82800160010185558215611b81579182015b82811115611b80578251825591602001919060010190611b65565b5b509050611b8e9190611bac565b5090565b604051806040016040528060608152602001600081525090565b5b80821115611bc5576000816000905550600101611bad565b5090565b600081359050611bd8816127fc565b92915050565b60008083601f840112611bf057600080fd5b8235905067ffffffffffffffff811115611c0957600080fd5b602083019150836001820283011115611c2157600080fd5b9250929050565b600081359050611c3781612813565b92915050565b600060208284031215611c4f57600080fd5b6000611c5d84828501611bc9565b91505092915050565b60008060208385031215611c7957600080fd5b600083013567ffffffffffffffff811115611c9357600080fd5b611c9f85828601611bde565b92509250509250929050565b600060208284031215611cbd57600080fd5b6000611ccb84828501611c28565b91505092915050565b6000611ce08383611d00565b60208301905092915050565b6000611cf88383611fb7565b905092915050565b611d098161243d565b82525050565b611d188161243d565b82525050565b6000611d2982612329565b611d338185612364565b9350611d3e83612309565b8060005b83811015611d6f578151611d568882611cd4565b9750611d618361234a565b925050600181019050611d42565b5085935050505092915050565b6000611d8782612334565b611d918185612375565b935083602082028501611da385612319565b8060005b85811015611ddf5784840389528151611dc08582611cec565b9450611dcb83612357565b925060208a01995050600181019050611da7565b50829750879550505050505092915050565b611dfa8161244f565b82525050565b611e098161244f565b82525050565b611e1881612498565b82525050565b6000611e2a83856123a8565b9350611e378385846124aa565b82840190509392505050565b6000611e4e8261233f565b611e588185612386565b9350611e688185602086016124b9565b611e71816125f4565b840191505092915050565b6000611e89602283612397565b9150611e9482612605565b604082019050919050565b6000611eac602683612397565b9150611eb782612654565b604082019050919050565b6000611ecf601583612397565b9150611eda826126a3565b602082019050919050565b6000611ef2601b83612397565b9150611efd826126cc565b602082019050919050565b6000611f15603283612397565b9150611f20826126f5565b604082019050919050565b6000611f38601783612397565b9150611f4382612744565b602082019050919050565b6000611f5b602083612397565b9150611f668261276d565b602082019050919050565b6000611f7e601683612397565b9150611f8982612796565b602082019050919050565b6000611fa1601683612397565b9150611fac826127bf565b602082019050919050565b60006040830160008301518482036000860152611fd48282611e43565b9150506020830151611fe96020860182612073565b508091505092915050565b600060408301600083015184820360008601526120118282611e43565b91505060208301516120266020860182612073565b508091505092915050565b6060820160008201516120476000850182611df1565b50602082015161205a6020850182611df1565b50604082015161206d6040850182612073565b50505050565b61207c8161248e565b82525050565b61208b8161248e565b82525050565b600061209e828486611e1e565b91508190509392505050565b60006020820190506120bf6000830184611d0f565b92915050565b60006040820190506120da6000830185611d0f565b6120e76020830184612082565b9392505050565b600060208201905081810360008301526121088184611d1e565b905092915050565b6000602082019050818103600083015261212a8184611d7c565b905092915050565b60006020820190506121476000830184611e00565b92915050565b60006020820190506121626000830184611e0f565b92915050565b600060408201905061217d6000830185611e0f565b61218a6020830184611e0f565b9392505050565b600060208201905081810360008301526121aa81611e7c565b9050919050565b600060208201905081810360008301526121ca81611e9f565b9050919050565b600060208201905081810360008301526121ea81611ec2565b9050919050565b6000602082019050818103600083015261220a81611ee5565b9050919050565b6000602082019050818103600083015261222a81611f08565b9050919050565b6000602082019050818103600083015261224a81611f2b565b9050919050565b6000602082019050818103600083015261226a81611f4e565b9050919050565b6000602082019050818103600083015261228a81611f71565b9050919050565b600060208201905081810360008301526122aa81611f94565b9050919050565b600060208201905081810360008301526122cb8184611ff4565b905092915050565b60006060820190506122e86000830184612031565b92915050565b60006020820190506123036000830184612082565b92915050565b6000819050602082019050919050565b6000819050602082019050919050565b600081519050919050565b600081519050919050565b600081519050919050565b6000602082019050919050565b6000602082019050919050565b600082825260208201905092915050565b600082825260208201905092915050565b600082825260208201905092915050565b600082825260208201905092915050565b600081905092915050565b60006123be8261248e565b91506123c98361248e565b9250827fffffffffffffffffffffffffffffffffffffffffffffffffffffffffffffffff038211156123fe576123fd612567565b5b828201905092915050565b60006124148261248e565b915061241f8361248e565b92508282101561243257612431612567565b5b828203905092915050565b60006124488261246e565b9050919050565b60008115159050919050565b6000819050612469826127e8565b919050565b600073ffffffffffffffffffffffffffffffffffffffff82169050919050565b6000819050919050565b60006124a38261245b565b9050919050565b82818337600083830152505050565b60005b838110156124d75780820151818401526020810190506124bc565b838111156124e6576000848401525b50505050565b6000600282049050600182168061250457607f821691505b60208210811415612518576125176125c5565b5b50919050565b60006125298261248e565b91507fffffffffffffffffffffffffffffffffffffffffffffffffffffffffffffffff82141561255c5761255b612567565b5b600182019050919050565b7f4e487b7100000000000000000000000000000000000000000000000000000000600052601160045260246000fd5b7f4e487b7100000000000000000000000000000000000000000000000000000000600052602160045260246000fd5b7f4e487b7100000000000000000000000000000000000000000000000000000000600052602260045260246000fd5b6000601f19601f8301169050919050565b7f5468652070726f706f73616c4964206973206f7574206f66207468652061727260008201527f6179000000000000000000000000000000000000000000000000000000000000602082015250565b7f4f776e61626c653a206e6577206f776e657220697320746865207a65726f206160008201527f6464726573730000000000000000000000000000000000000000000000000000602082015250565b7f596f752063616e277420676f20666f7277617264730000000000000000000000600082015250565b7f546869732070726f706f73616c20616c72656164792065786973740000000000600082015250565b7f43757272656e7420776f726b666c6f7720737461747573206e6f7420616c696760008201527f6e2077697468206578706563746174696f6e0000000000000000000000000000602082015250565b7f596f7520617265206e6f742077686974656c6973746564000000000000000000600082015250565b7f4f776e61626c653a2063616c6c6572206973206e6f7420746865206f776e6572600082015250565b7f566f74657220616c726561647920726567697374657200000000000000000000600082015250565b7f596f75206861766520616c726561647920766f74656400000000000000000000600082015250565b600681106127f9576127f8612596565b5b50565b6128058161243d565b811461281057600080fd5b50565b61281c8161248e565b811461282757600080fd5b5056fea2646970667358221220384dcc44ddd41917bc4e650041b4e7378fb159cfcf91b14c9e57ffba390f485d64736f6c63430008040033",
  "immutableReferences": {},
  "source": "// SPDX-License-Identifier: GPL-3.0\npragma solidity 0.8.4;\n\nimport \"@openzeppelin/contracts/access/Ownable.sol\";\n\n/**\n * @title Voting\n * @author Fabien COUTANT\n * @dev Implements a voting system where users are imported by admin\n *\n */\ncontract Voting is Ownable {\n\n    //Structure\n    struct Voter {\n        bool isRegistered;\n        bool hasVoted;\n        uint votedProposalId;\n    }\n\n    struct Proposal {\n        string description;\n        uint voteCount;\n    }\n\n    //Enum\n    enum WorkflowStatus {\n        RegisteringVoters,\n        ProposalsRegistrationStarted,\n        ProposalsRegistrationEnded,\n        VotingSessionStarted,\n        VotingSessionEnded,\n        VotesTallied\n    }\n\n\n    //Var\n    uint private winningProposalId;\n\n    Proposal[] private proposalList;\n    mapping(string=>bool) private existingProposal;\n\n    WorkflowStatus private status = WorkflowStatus.RegisteringVoters;\n\n    //mapping\n    mapping(address=>Voter) private whitelist;\n    address[] private listOfWhitelisted;\n\n    //Events\n    event VoterRegistered(address voterAddress);\n    event ProposalsRegistrationStarted();\n    event ProposalsRegistrationEnded();\n    event ProposalRegistered(uint proposalId);\n    event VotingSessionStarted();\n    event VotingSessionEnded();\n    event Voted (address voter, uint proposalId);\n    event VotesTallied();\n    event WorkflowStatusChange(WorkflowStatus previousStatus, WorkflowStatus\n    newStatus);\n\n    //modifier\n    modifier checkStatus(WorkflowStatus _currentStatus, WorkflowStatus _expectedStatus){\n        require(_currentStatus==_expectedStatus,\"Current workflow status not align with expectation\");\n        _;\n    }\n\n    modifier onlyWhitelistedUser(){\n        require(whitelist[msg.sender].isRegistered,\"You are not whitelisted\");\n        _;\n    }\n\n    /**\n     * @dev Change the WorkflowStatus to the next one\n     * @return Whether or not the workflow status change succeeded\n     */\n    function nextWorkflowStatus() public onlyOwner returns(bool){\n        require(status<WorkflowStatus.VotingSessionEnded,\"You can't go forwards\");\n        WorkflowStatus _previousStatus = status;\n        status=WorkflowStatus(uint(status) + 1);\n        if(uint(status)==1){\n            emit ProposalsRegistrationStarted();\n        }else if(uint(status)==2){\n            emit ProposalsRegistrationEnded();\n        }else if(uint(status)==3){\n            emit VotingSessionStarted();\n        }else if(uint(status)==4){\n            emit VotingSessionEnded();\n        }\n        emit WorkflowStatusChange(_previousStatus, status);\n        return true;\n    }\n\n    /**\n     * @dev Add new voter to the whitelisted\n     * @param _voter address of the new voter\n     * @return Whether or not adding new Voter succeeded\n     */\n    function addNewVoter(address _voter) external onlyOwner checkStatus(status,WorkflowStatus.RegisteringVoters) returns(bool){\n        require(!whitelist[_voter].isRegistered,\"Voter already register\");\n        whitelist[_voter]=Voter(true, false,0);\n        listOfWhitelisted.push(_voter);\n        emit VoterRegistered(_voter);\n        return true;\n    }\n\n    /**\n     * @dev Allow whitelisted user to add proposal if status is at ProposalsRegistrationStarted\n     * @param _description string of the user proposal\n     * @return Whether or not adding new Proposal succeeded\n     */\n    function addProposal(string calldata _description) external onlyWhitelistedUser checkStatus(status,WorkflowStatus.ProposalsRegistrationStarted) returns(bool){\n        require(!existingProposal[_description],\"This proposal already exist\");\n        proposalList.push(Proposal(_description,0));\n        existingProposal[_description]=true;\n        emit ProposalRegistered(getNumberOfProposals()-1);\n        return true;\n    }\n\n\n    /**\n     * @dev Allow whitelisted user to add vote one time for a proposal\n     * @param _proposalId uint of the proposal id number\n     * @return Whether or not adding new Proposal succeeded\n     */\n    function addVote(uint _proposalId) external checkStatus(status,WorkflowStatus.VotingSessionStarted) onlyWhitelistedUser returns(bool){\n        require(_proposalId<=getNumberOfProposals()-1,\"The proposalId is out of the array\");\n        require(!whitelist[msg.sender].hasVoted,\"You have already voted\");\n        proposalList[_proposalId].voteCount++;\n        if(proposalList[_proposalId].voteCount > proposalList[winningProposalId].voteCount){\n            winningProposalId = _proposalId;\n        }\n        (whitelist[msg.sender].hasVoted,whitelist[msg.sender].votedProposalId)=(true,_proposalId);\n        emit Voted(msg.sender, _proposalId);\n        return true;\n    }\n\n    /**\n     * @dev Allow admin to select the winning proposal\n     * @return Whether or not calling the result succeeded\n     */\n    function results() external onlyOwner checkStatus(status,WorkflowStatus.VotingSessionEnded) returns(bool){\n        status = WorkflowStatus.VotesTallied;\n        emit WorkflowStatusChange(\n            WorkflowStatus.VotingSessionEnded,\n            status\n        );\n        emit VotesTallied();\n        return true;\n    }\n\n\n    /**\n     * @dev Getter of proposal information\n     * @param _proposalId uint of the proposal id number\n     * @return Proposal\n     */\n    function getProposalById(uint _proposalId) external view returns(Proposal memory){\n        return proposalList[_proposalId];\n    }\n\n    /**\n     * @dev Get the proposals list\n     * @return Proposal[]\n     */\n    function getProposals() external view returns(Proposal[] memory){\n        return proposalList;\n    }\n\n    /**\n     * @dev Get the list of whitelisted address\n     * @return listOfWhitelisted[]\n     */\n    function getListOfWhitelist() external view returns(address[] memory){\n        return listOfWhitelisted;\n    }\n    /**\n     * @dev Getter of whitelisted user information\n     * @param _voterAddress address of the whitelisted user\n     * @return Voter memory\n     */\n    function getVoterInfoByAddress(address _voterAddress) external view returns(Voter memory){\n        return whitelist[_voterAddress];\n    }\n\n    /**\n     * @dev Getter of current workflow status\n     * @return WorkflowStatus number\n     */\n    function getCurrentStatus() external view returns(WorkflowStatus){\n        return status;\n    }\n\n\n    /**\n     * @dev Getter of winning proposalId\n     * @return proposalId uint\n     */\n    function getWinningProposalId() external view checkStatus(status,WorkflowStatus.VotesTallied) returns(uint proposalId){\n        return winningProposalId;\n    }\n\n\n    /**\n     * @dev Return the number of proposal\n     * @return uint number of total proposal registered\n     */\n    function getNumberOfProposals() private returns(uint){\n        return proposalList.length;\n    }\n}\n",
  "sourcePath": "/Users/Xutyr/Documents/Lab/Dapp_example/contracts/Voting.sol",
  "compiler": {
    "name": "solc",
    "version": "0.8.4+commit.c7e474f2.Emscripten.clang"
  },
  "schemaVersion": "3.4.1",
  "updatedAt": "2021-06-28T08:31:13.574Z",
  "networkType": "ethereum",
  "devdoc": {
    "author": "Fabien COUTANT",
    "details": "Implements a voting system where users are imported by admin",
    "kind": "dev",
    "methods": {
      "addNewVoter(address)": {
        "details": "Add new voter to the whitelisted",
        "params": {
          "_voter": "address of the new voter"
        },
        "returns": {
          "_0": "Whether or not adding new Voter succeeded"
        }
      },
      "addProposal(string)": {
        "details": "Allow whitelisted user to add proposal if status is at ProposalsRegistrationStarted",
        "params": {
          "_description": "string of the user proposal"
        },
        "returns": {
          "_0": "Whether or not adding new Proposal succeeded"
        }
      },
      "addVote(uint256)": {
        "details": "Allow whitelisted user to add vote one time for a proposal",
        "params": {
          "_proposalId": "uint of the proposal id number"
        },
        "returns": {
          "_0": "Whether or not adding new Proposal succeeded"
        }
      },
      "getCurrentStatus()": {
        "details": "Getter of current workflow status",
        "returns": {
          "_0": "WorkflowStatus number"
        }
      },
      "getListOfWhitelist()": {
        "details": "Get the list of whitelisted address",
        "returns": {
          "_0": "listOfWhitelisted[]"
        }
      },
      "getProposalById(uint256)": {
        "details": "Getter of proposal information",
        "params": {
          "_proposalId": "uint of the proposal id number"
        },
        "returns": {
          "_0": "Proposal"
        }
      },
      "getProposals()": {
        "details": "Get the proposals list",
        "returns": {
          "_0": "Proposal[]"
        }
      },
      "getVoterInfoByAddress(address)": {
        "details": "Getter of whitelisted user information",
        "params": {
          "_voterAddress": "address of the whitelisted user"
        },
        "returns": {
          "_0": "Voter memory"
        }
      },
      "getWinningProposalId()": {
        "details": "Getter of winning proposalId",
        "returns": {
          "proposalId": "uint"
        }
      },
      "nextWorkflowStatus()": {
        "details": "Change the WorkflowStatus to the next one",
        "returns": {
          "_0": "Whether or not the workflow status change succeeded"
        }
      },
      "owner()": {
        "details": "Returns the address of the current owner."
      },
      "renounceOwnership()": {
        "details": "Leaves the contract without owner. It will not be possible to call `onlyOwner` functions anymore. Can only be called by the current owner. NOTE: Renouncing ownership will leave the contract without an owner, thereby removing any functionality that is only available to the owner."
      },
      "results()": {
        "details": "Allow admin to select the winning proposal",
        "returns": {
          "_0": "Whether or not calling the result succeeded"
        }
      },
      "transferOwnership(address)": {
        "details": "Transfers ownership of the contract to a new account (`newOwner`). Can only be called by the current owner."
      }
    },
    "title": "Voting",
    "version": 1
  },
  "userdoc": {
    "kind": "user",
    "methods": {},
    "version": 1
  }
}